{
  "_format": "hh-sol-artifact-1",
  "contractName": "AccountFactory",
  "sourceName": "contracts/Account.sol",
  "abi": [
    {
      "inputs": [
        {
          "internalType": "address",
          "name": "owner",
          "type": "address"
        }
      ],
      "name": "createAccount",
      "outputs": [
        {
          "internalType": "address",
          "name": "",
          "type": "address"
        }
      ],
      "stateMutability": "nonpayable",
      "type": "function"
    }
  ],
  "bytecode": "0x608060405234801561001057600080fd5b50610383806100206000396000f3fe608060405234801561001057600080fd5b506004361061002b5760003560e01c80639859387b14610030575b600080fd5b61004361003e3660046100ca565b61006c565b60405173ffffffffffffffffffffffffffffffffffffffff909116815260200160405180910390f35b6000808260405161007c906100bd565b73ffffffffffffffffffffffffffffffffffffffff9091168152602001604051809103906000f0801580156100b5573d6000803e3d6000fd5b509392505050565b6102468061010883390190565b6000602082840312156100dc57600080fd5b813573ffffffffffffffffffffffffffffffffffffffff8116811461010057600080fd5b939250505056fe608060405234801561001057600080fd5b5060405161024638038061024683398101604081905261002f91610054565b600180546001600160a01b0319166001600160a01b0392909216919091179055610084565b60006020828403121561006657600080fd5b81516001600160a01b038116811461007d57600080fd5b9392505050565b6101b3806100936000396000f3fe608060405234801561001057600080fd5b506004361061004c5760003560e01c806306661abd146100515780633a871cdd1461006d57806361461954146100845780638da5cb5b1461008e575b600080fd5b61005a60005481565b6040519081526020015b60405180910390f35b61005a61007b3660046100e9565b60009392505050565b61008c6100d3565b005b6001546100ae9073ffffffffffffffffffffffffffffffffffffffff1681565b60405173ffffffffffffffffffffffffffffffffffffffff9091168152602001610064565b6000805490806100e28361013d565b9190505550565b6000806000606084860312156100fe57600080fd5b833567ffffffffffffffff81111561011557600080fd5b8401610160818703121561012857600080fd5b95602085013595506040909401359392505050565b600060018201610176577f4e487b7100000000000000000000000000000000000000000000000000000000600052601160045260246000fd5b506001019056fea264697066735822122034bf810b1011d057be268caf1cf50a2aee824bc3ff5cd1afee45386a27a7623b64736f6c63430008130033a2646970667358221220ef79516ec534a2fd07ad11abfabbb34aeaf420e572ded668299110f6bcb4d11964736f6c63430008130033",
  "linkReferences": {},
  "deployedLinkReferences": {}
}